:020000040800F2
:1000000000500020590F00082D0F00082F0F000886
:10001000310F0008330F0008350F00080000000002
:10002000000000000000000000000000312D00086A
:10003000370F000800000000D12D0008152E000821
:10004000A10F0008A10F0008A10F0008A10F0008D0
:10005000A10F0008A10F0008A10F0008A10F0008C0
:10006000A10F0008A10F0008A10F0008A10F0008B0
:10007000A10F0008A10F0008A10F0008A10F0008A0
:10008000A10F0008A10F0008A10F0008A10F000890
:10009000A10F0008A10F0008A10F0008390F0008E8
:1000A000A10F0008A10F0008A10F0008A10F000870
:1000B000A10F0008A10F0008450F0008A10F0008BC
:1000C000A10F0008A10F0008A10F0008A10F000850
:1000D000A10F0008A10F0008A10F0008A10F000840
:1000E000A10F0008A10F0008A10F000800000000E8
:1000F0000000000000000000000000000000000000
:0C01000000000000000000005FF808F1A3
:1001100010B5054C237833B9044B13B10448AFF341
:1001200000800123237010BD3C040020000000006B
:10013000803A000808B5034B1BB103490348AFF3ED
:10014000008008BD0000000040040020803A000844
:1001500000B585B000230193029303931048114A20
:1001600002608360037303754FF46022C2614360D1
:100170000123036101F09AF960B900230193012280
:100180000292039301A9064801F00AF828B905B0C4
:100190005DF804FB00F0E8F9EFE700F0E5F9F6E7B9
:1001A000580400200024014000B585B000230193CD
:1001B000029303931048114A02608360037303752E
:1001C0004FF46022C26143600123036101F06EF9C4
:1001D00060B90123019302930023039301A9064808
:1001E00000F0DEFF28B905B05DF804FB00F0BCF9B3
:1001F000EFE700F0B9F9F6E7880400200028014095
:1002000000B589B000230493059306930793036810
:10021000204A934205D0204A93421ED009B05DF88F
:1002200004FB1E4B9A6942F400729A619A6902F4C7
:1002300000720092009A9A6942F004029A619B69E6
:1002400003F004030193019B01230493032305930B
:1002500004A9134801F006FAE0E7104B9A6942F44A
:1002600080629A619A6902F480620292029A9A69A3
:1002700042F004029A619B6903F004030393039B19
:10028000022304930323059304A9054801F0EAF926
:10029000C4E700BF002401400028014000100240D4
:1002A0000008014008B5012002F0B4FCFBE70000A3
:1002B000034B0360034B0B6040231360704700BF88
:1002C000C8050020C804002010B59CB0244C0DF1D6
:1002D000540CA646BEE80F00ACE80F009EE80700ED
:1002E0008CE80700002115A802F05FFC1D4B186088
:1002F0000DF1380C04F11C0EBEE80F00ACE80F0045
:100300009EE807008CE8070000210EA802F04DFCD3
:10031000154B18600DF11C0C04F1380EBEE80F00EF
:10032000ACE80F009EE807008CE80700002107A852
:1003300002F03BFC0D4B1860EE4604F1540CBCE897
:100340000F00AEE80F009CE807008EE807000021D0
:10035000684602F02AFC064B18601CB010BD00BFB6
:10036000983A0008C4040020C0040020B80400200B
:10037000BC0400202DE9F04188B0002404940594C9
:1003800006940794324B9A6942F010029A619A6976
:1003900002F010020092009A9A6942F020029A61DB
:1003A0009A6902F020020192019A9A6942F00402CD
:1003B0009A619A6902F004020292029A9A6942F0E2
:1003C00008029A619B6903F008030393039BDFF81B
:1003D000848022464FF40051404601F055FA1E4DEC
:1003E00001224FF40061284601F04EFA224641F204
:1003F000F801284601F048FA4FF40053049301270E
:10040000059706940326079604A9404601F02AF9A9
:1004100041F6F803049305970694079604A9284625
:1004200001F020F94FF4807304930C4B059306946C
:1004300004A90B4801F016F922460521172001F006
:10044000CBF8172001F000F908B0BDE8F08100BF3B
:100450000010024000100140000C0140000021107B
:100460000008014008B5002140F6C41000F0B7FABA
:10047000034800F06BF9012002F0CCFBF8E700BF65
:1004800020060020B0F5807F00D0704708B500F04E
:1004900017FA08BD08B518E0204600F07DFE154BA0
:1004A00018801FE0144800F077FE144B1880114BA1
:1004B0001A88134B1A70120A5A70104A12889A70CE
:1004C000120ADA70012002F0A5FB0E4C204600F063
:1004D0004DFF094800F04AFF0521204600F09AFD33
:1004E0000028D9D00521044800F094FD0028D9D077
:1004F000DDE700BF1C060020880400201E06002047
:10050000200600205804002000B583B000F0A2FBB4
:100510000C4A0021022000F085FB102400940423E3
:10052000094A12880221084600F034FB0094042393
:10053000064A12881946022000F02CFB012002F026
:1005400069FBE5E7283B00081C0600201E0600208A
:1005500008B50268034B9A4200D008BD00F034FD94
:10056000FBE700BF0008004072B6FEE700B595B09B
:10057000282200210DEB020003F0C0F900230593AF
:1005800006930793089309930193029303930493AB
:1005900001220A924FF480330B930E9202221192A1
:1005A00012934FF4E01313930AA801F0A1F9C8B90C
:1005B0000F23059302210691002307934FF48062D5
:1005C0000892099305A801F0C5FB68B902230193BD
:1005D0004FF40043039301A801F0B6FC30B915B005
:1005E0005DF804FBFFF7C0FFFFF7BEFFFFF7BCFF9E
:1005F00008B500F0D7FCFFF7B9FFFFF7BBFE00F02E
:10060000BDFBFFF7A5FDFFF7CFFDFFF75DFE02F095
:10061000C7FAFEE708B501224FF48051014801F006
:1006200033F908BD000C014008B501224FF4006108
:10063000014801F029F908BD000C014008B500226D
:100640004FF48051014801F01FF908BD000C014032
:1006500008B500224FF40061014801F015F908BD0A
:10066000000C014030B585B040F020008DF80F003F
:100670008DF80D10FFF7ECFF0C4C4FF4FA65009568
:1006800001230DF10E020DF10F01204601F041FF93
:100690002B4601220DF10D01204601F05EFEFFF711
:1006A000C3FF9DF80D0005B030BD00BF2806002037
:1006B00030B585B08DF80F00FFF7CAFF0C4C4FF432
:1006C000FA65009501230DF10E020DF10F01204690
:1006D00001F01FFF2B4601220DF10D01204602F013
:1006E0003AF8FFF7A1FF9DF80D0005B030BD00BF3F
:1006F0002806002008B50020FFF7DAFF00F0FE0111
:100700000020FFF7AFFF08BD70B584B00446A023FA
:100710008DF80F30FFF79CFF0B4D4FF4FA660096F3
:1007200001230DF10E020DF10F01284601F0F1FE3B
:10073000334608222146284601F00FFEFFF774FFDA
:100740009DF80E0004B070BD2806002008B5FFF724
:10075000DBFF08BD00B585B0E2238DF80F30FFF751
:1007600077FF4FF4FA63009301230DF10E020DF1B0
:100770000F01044801F0CDFEFFF756FF05B05DF80C
:1007800004FB00BF2806002000B585B0E1238DF8EA
:100790000F30FFF75DFF4FF4FA63009301230DF173
:1007A0000E020DF10F01044801F0B3FEFFF73CFF0C
:1007B00005B05DF804FB00BF2806002008B5FFF770
:1007C00033FFFFF73BFF08210020FFF74BFF3F21DE
:1007D0000120FFF747FF03210220FFF743FF03211A
:1007E0000846FFF73FFF03210420FFF73BFF0221EC
:1007F0000520FFF737FF07210620FFF733FF7E2193
:100800000720FFF72FFF00211120FFF72BFF00210A
:100810001120FFF727FF00211220FFF723FF0021FF
:100820001320FFF71FFF00211420FFF71BFF0021FB
:100830001520FFF717FF00211620FFF713FF1121E6
:100840001720FFF70FFF00211C20FFF70BFF0021EF
:100850001D20FFF707FFFFF77DFFFFF795FF08BD9E
:1008600000B585B0FF238DF80F30FFF7F1FE4FF490
:10087000FA63009301230DF10E020DF10F010548FB
:1008800001F047FEFFF7D0FE9DF80E0005B05DF8C1
:1008900004FB00BF2806002008B5FFF7E1FF40F089
:1008A0002001C9B20720FFF7DDFE08BD08B5FFF73C
:1008B000D7FF40F01001C9B20720FFF7D3FE08BDF3
:1008C00008B5FFF7CDFF10F0200F07D04FF400510F
:1008D000074800F0DFFFFFF7DFFF08BD01224FF4FC
:1008E0000051034800F0D0FFFFF7E0FFF5E700BF3D
:1008F0000010014008B50020FFF7DAFE40F00201C9
:10090000C9B20020FFF7AEFE08BD10B504460020B6
:10091000FFF7CEFE0146012C05D0022C06D00020A8
:10092000FFF7A0FE10BD00F0FB01F8E740F0040166
:10093000C9B2F4E708B5811EC9B20320FFF792FEE1
:1009400008BD10B504460420FFF7B2FE60F00F01A9
:10095000C9B221430420FFF785FE10BD10B504463F
:100960000420FFF7A5FE40F00F01C8B20549A1FB26
:1009700004310909013940EA0111C9B20420FFF725
:1009800071FE10BDD34D621008B5A0F51661C9B255
:100990000520FFF767FE08BD10B504460620FFF7E7
:1009A00087FE00F0F90141EA4401C9B20620FFF7D1
:1009B00059FE10BD10B504460620FFF779FE00F081
:1009C000D701012C05D0022C06D00620FFF74AFEE5
:1009D00010BD41F00801F8E741F02001F5E738B516
:1009E00005460C46FFF7EAFEFFF784FEFFF782FF9D
:1009F0002846FFF7C9FF2046FFF7DCFF0320FFF77B
:100A0000CBFF0120FFF781FF0520FFF793FF0320B5
:100A1000FFF797FFFA20FFF7A1FFFFF7FBFD38BDB7
:100A200038B5044659B1012240211D4800F02CFF81
:100A3000002280211A4800F027FF002513E0002241
:100A40004021174800F020FFF2E70022102114484F
:100A500000F01AFF01220821114800F015FF640080
:100A6000E4B20135EDB2072D0DD8002208210C4863
:100A700000F00AFF14F0800FE7D00122102108488F
:100A800000F002FFE6E7064C01228021204600F03C
:100A9000FBFE01224021204600F0F6FE38BD00BFDB
:100AA000000C014010B50446A1F150000021C0B275
:100AB000FFF7B6FF2009002140F01000FFF7B0FF5C
:100AC00004F00E00002140F00100FFF7A9FF10BD67
:100AD00038B500250AE001210020FFF7A1FF01340D
:100AE000E4B214F0800FF6D00135EDB2072D0FD827
:100AF000A5F150000021C0B2FFF792FF0021084687
:100B0000FFF78EFF00211020FFF78AFF0024E8E79F
:100B100038BD0000F8B507460E46A2F12005EDB23B
:100B200010F0800F05D131463846FFF7BBFF002497
:100B30000CE00236F6B20027F5E704EB05130121BD
:100B40000D4AD05CFFF76CFF0134E4B2072CF4D9F6
:100B5000711CC9B23846FFF7A5FF002409E004EB79
:100B6000051308330121044AD05CFFF759FF013413
:100B7000E4B2072CF3D9F8BD343B0008024601204B
:100B800002E002FB00F019464B1EDBB20029F8D14F
:100B9000704700002DE9F0478146884617461D46FC
:100BA0009DF820A00026344619E04FEA5A0004FBC5
:100BB00000F0C0B2484420224146C0B2FFF7AAFF6D
:100BC0000BE04FEA5A0004FB00F0C0B23032484458
:100BD000D2B24146C0B2FFF79DFF0134E4B2AC424D
:100BE0001CD2291BC9B20139C9B20A20FFF7C6FFBE
:100BF000B7FBF0F00A4AA2FB003C4FEADC0C0CEB1E
:100C00008C0CA0EB4C0C5FFA8CF2002ED9D16B1E31
:100C10009C42D6DA002AC8D00126D2E7BDE8F08788
:100C2000CDCCCCCCF8B504460E461746002501E0E5
:100C30000135EDB27A5D5AB131462046FFF76AFFC1
:100C40000834E4B2782CF3D90236F6B20024EFE788
:100C5000F8BD000010B5484C01222021204600F0CC
:100C600013FE0A2000F0C2F900222021204600F0E5
:100C70000BFE0A2000F0BAF901222021204600F0E4
:100C800003FE0021AE20FFF7CBFE00210846FFF750
:100C9000C7FE00211020FFF7C3FE00214020FFF710
:100CA000BFFE00218120FFF7BBFE0021CF20FFF710
:100CB000B7FE0021A120FFF7B3FE0021C820FFF7F7
:100CC000AFFE0021A620FFF7ABFE0021A820FFF712
:100CD000A7FE00213F20FFF7A3FE0021D320FFF74E
:100CE0009FFE00210846FFF79BFE0021D520FFF75D
:100CF00097FE00218020FFF793FE0021D920FFF707
:100D00008FFE0021F120FFF78BFE0021DA20FFF794
:100D100087FE00211220FFF783FE0021DB20FFF772
:100D20007FFE00214020FFF77BFE00212020FFF7FF
:100D300077FE00210220FFF773FE00218D20FFF7D0
:100D40006FFE00211420FFF76BFE0021A420FFF7A7
:100D500067FE0021A620FFF763FE0021AF20FFF70A
:100D60005FFE0021AF20FFF75BFEFFF7B1FE002121
:100D70000846FFF797FE10BD000C014008B50E486D
:100D80000E4B03604FF48273436000238360C360A3
:100D9000036143614FF4007282611022C2610362F9
:100DA000436283620A23C36201F07CFA00B908BD82
:100DB000FFF7DAFBFBE700BF280600200038004001
:100DC00010B586B000230293039304930593026841
:100DD000174B9A4201D006B010BD03F5EC33DA6927
:100DE00042F48042DA61DA6902F480420092009AA9
:100DF0009A6942F008029A619B6903F00803019323
:100E0000019B4FF420430293022303930323059392
:100E1000084C02A9204600F025FC4FF480430293C1
:100E200000230393049302A9204600F01BFCD2E7A1
:100E300000380040000C014000B583B0114B9A69A6
:100E400042F001029A619A6902F001020092009A4E
:100E5000DA6942F08052DA61DB6903F08053019372
:100E6000019B00220F216FF0010000F0B5FB064A44
:100E7000536823F0E06343F00073536003B05DF800
:100E800004FB00BF001002400000014030B589B0F3
:100E90000446214BDA6942F00402DA61DB6903F0AF
:100EA00004030193019B02A903A801F02FF8069BFC
:100EB000CBB901F00BF803461848A0FB03239B0CA9
:100EC000013B1748174A026040F2E732C2604360B4
:100ED000002303618360836101F02EFE054630B17B
:100EE000284609B030BD00F0F1FF4300E4E70C48AC
:100EF00001F0F2FC05460028F2D11E2000F0A4FB10
:100F00000F2C01D90125EBE7002221461E2000F01D
:100F100063FB054B1C60E3E70010024083DE1B43CC
:100F2000800600200008004008000020FEE7FEE7E1
:100F3000FEE7FEE7FEE7704708B54FF4807000F06B
:100F4000B3FC08BD08B5024801F0FEFC08BD00BFB7
:100F50008006002070470000FFF7FCFF0B480C499B
:100F60000C4A002302E0D458C4500433C4188C4205
:100F7000F9D3094A094C002301E013600432A2426C
:100F8000FBD302F097FCFFF733FB70470000002013
:100F90003C0400207C4100083C0400201C1400207C
:100FA000FEE7000008B5074A136843F0100313601A
:100FB000032000F0FFFA0F20FFF768FFFFF73CFF68
:100FC000002008BD00200240034A1168034B1B7833
:100FD0000B441360704700BFC806002004000020C7
:100FE000014B1868704700BFC806002038B504469A
:100FF000FFF7F6FF0546B4F1FF3F02D0044B1B7824
:101000001C44FFF7EDFF401BA042FAD338BD00BFE0
:1010100004000020F0B583B005460C460023019380
:10102000FFF7DEFF2B689A6812F4807F23D1074612
:101030005A6812F4807F03D1DB6A13F4700F29D051
:10104000504B1E68022001F00BF8B6FBF0F62B683F
:1010500019694D4A114236D1D96802F15C421142F8
:1010600031D11969494A114240D1DA68484B1A42D4
:101070003ED0292041E0AB6A43F02003AB6200235D
:1010800085F82430012003B0F0BD2B681B6813F0F5
:10109000020F0FD02B681B6813F0020F4FD1B4F171
:1010A000FF3FF7D0002CF0D0FFF79AFFC31BA342FD
:1010B000F0D9EAE7AB6A43F00403AB62002385F89A
:1010C00024300320DFE71969304A114204D1D9687E
:1010D00002F16E4211420DD019692E4A0A405AB9E6
:1010E000DA682C4B13405BB1FC2006E0292004E0B9
:1010F000142002E0542000E0FC2000FB06F607E08C
:101100005420FAE7019BB34210D3019B01330193B2
:10111000019BB34213D2B4F1FF3FF6D0002CF1D0C3
:10112000FFF75EFFC01BA042EFD9EBE7AB6A43F0CD
:101130000403AB62002385F824300320A3E72B6867
:101140006FF012021A60AB6A43F40073AB622B6853
:101150009B6803F46023B3F5602F01D0002092E771
:10116000287B60B9AB6A23F48073AB62AB6A13F47B
:10117000805F88D1AB6A43F00103AB6283E7002054
:1011800081E700BF000000202449922492244912E4
:1011900092244900499224000368D86C70470000EB
:1011A00030B482B00022019290F82420012A00F08D
:1011B00091800346012280F824204A68062A2DD80F
:1011C0000468606B02EB8202053A4FF01F0C0CFAC8
:1011D00002FC20EA0C000D6805FA02F20243626389
:1011E0000A68092A3AD91C68E06802EB42021E3AF2
:1011F0004FF0070C0CFA02FC20EA0C008D6805FA8F
:1012000002F20243E2600A68103A012A36D900204D
:10121000002283F8242002B030BC70470C2A0ED87C
:101220000568286B02EB8202233A1F24944020EACF
:1012300004000C6804FA02F202432A63D0E705684E
:10124000E86A02EB8202413A1F24944020EA04003B
:101250000C6804FA02F20243EA62C1E71C682069E2
:1012600002EB42024FF0070C0CFA02FC20EA0C00E1
:101270008D6805FA02F202432261C4E71A68164833
:10128000824205D09A6A42F020029A620120BFE7AA
:10129000906810F4000F1BD1906840F4000090603B
:1012A0000A68102A01D00020B2E70C4A12680C49E3
:1012B000A1FB0212920C02EB82025200019202E0A8
:1012C000019A013A0192019A002AF9D100209FE780
:1012D00000209DE702209EE700240140000000203E
:1012E00083DE1B4330B583B00023019303689A6803
:1012F00012F0010F33D104469A6842F001029A605D
:10130000184B1B68184AA2FB03239B0C019302E0B5
:10131000019B013B0193019B002BF9D1FFF760FE7C
:10132000054623689B6813F0010F16D1FFF758FE9E
:10133000431B022BF5D923689B6813F0010FF0D1F2
:10134000A36A43F01003A362E36A43F00103E3627C
:10135000002384F82430012002E0002000E0002077
:1013600003B030BD0000002083DE1B4390F8243022
:10137000012B68D010B50446012380F82430FFF714
:10138000B1FF00285BD1A36A23F4407323F001036B
:1013900043F48073A36223682C4A934227D0A26A45
:1013A00022F48012A2625A6812F4806F05D0A26AF9
:1013B00022F4405242F48052A262A26A12F4805F88
:1013C0002BD0E26A22F00602E262002284F8242096
:1013D0006FF002021A6023689A6802F46022B2F584
:1013E000602F1DD09A6842F480129A602AE0A2F51C
:1013F0008062526812F4702FD1D0A26A42F4801237
:10140000A262134A526812F4806FD6D0A26A22F404
:10141000405242F48052A262CFE70022E262D4E757
:101420000A4A934204D09A6842F4A0029A6009E002
:10143000A2F58062526812F4702FD3D1F3E7002333
:1014400084F8243010BD0220704700BF00280140FE
:101450000024014038B503689A6812F0010F01D1E9
:10146000002038BD04469A6822F001029A60FFF716
:10147000B7FD054623689B6813F0010F13D0FFF7F3
:10148000AFFD431B022BF5D923689B6813F0010FB6
:10149000F0D0A36A43F01003A362E36A43F00103B0
:1014A000E3620120DDE70020DBE7000000287BD0BD
:1014B00070B50446836A002B4DD02046FFF7CAFF63
:1014C000A36A13F0100369D1002867D1A26A22F43D
:1014D000885222F0020242F00202A2626268E169CE
:1014E0000A43217B42EA4102A568B5F5807F02D01C
:1014F000012D36D01D46267D012E35D02668716817
:1015000021F46941294371602568AE68274931405B
:101510001143A960A168B1F5807F01D0012902D1F2
:101520002369013B1B052568E96A21F470010B431F
:10153000EB62236899681E4B0B409A4225D0A36A40
:1015400023F0120343F01003A362E36A43F00103A4
:10155000E362012027E0C36280F82430FEF750FEEA
:10156000ABE74FF48075C6E731B9A169013945EAA7
:10157000413141F40065C1E7A16A41F02001A16257
:10158000E16A41F00101E162B8E70023E362A36A86
:1015900023F0030343F00103A36204E0A36A43F0D2
:1015A0001003A362012070BD01207047FDF7E1FF29
:1015B000FE0E1FFF074AD36823F4E0631B041B0CD5
:1015C000000200F4E060034343F0BF6343F40033E0
:1015D000D360704700ED00E000B5194BDB68C3F342
:1015E0000223C3F1070CBCF1040F28BF4FF0040C19
:1015F00003F1040EBEF1060F18D9033B4FF0FF3E76
:101600000EFA0CFC21EA0C0199400EFA03F322EACF
:101610000303194300280BDB0901C9B200F1604044
:1016200000F5614080F800135DF804FB0023E5E756
:1016300000F00F000901C9B2024B1954F4E700BFD2
:1016400000ED00E014ED00E0002807DB00F01F02D1
:10165000400901239340024A42F82030704700BFFE
:1016600000E100E070B582B00024A446A6E0804D01
:10167000AA4210D007D97F4DAA420CD005F580357B
:10168000AA4208D013E0A5F58015AA4203D005F5BB
:101690007025AA4207D18A68002A58D0012A51D061
:1016A0004361082403E0A5F58015AA42F3D0BEF1FA
:1016B000FF0F4ED80646BEF1FF0F4CD84FEA8C0202
:1016C00033680F25954023EA050304FA02F2134319
:1016D00033604B6813F0805F6ED0674B9A6942F0BD
:1016E00001029A619B6903F001030193019B4FEA98
:1016F0009C02951C614B53F825600CF003039D0080
:101700000F23AB4026EA03065D4B984229D003F530
:101710008063984200F08E8003F58063984200F069
:101720008B8003F58063984219D004231AE0CC68BB
:10173000BDE7CC680434BAE7CC680834B7E7CC68B6
:101740000C34B4E703610824B1E70024AFE70424B4
:10175000ADE7061DAFE7ACF108029200B0E7032346
:1017600000E00023AB4033430232444D45F82230C1
:101770004B6813F4801F61D0424A936843EA0E031A
:1017800093604B6813F4001F5ED03E4AD36843EA6F
:101790000E03D3604B6813F4003F5BD0394A5368A3
:1017A00043EA0E0353604B6813F4803F58D0354A28
:1017B000136843EA0E0313600CF1010C0A6832FA55
:1017C0000CF353D0012303FA0CF302EA030E33EABD
:1017D0000202F1D14A68122A3FF649AF122A3FF6B7
:1017E00066AF01A555F822F0971600082F170008DC
:1017F000391700084B170008AF160008AF1600088D
:10180000AF160008AF160008AF160008AF160008A4
:10181000AF160008AF160008AF160008AF16000894
:10182000AF160008AF160008AF16000833170008FF
:101830003F170008012395E7022393E7114A9368B5
:1018400023EA0E0393609CE70E4AD36823EA0E0353
:10185000D3609FE70B4A536823EA0E035360A2E765
:10186000084A136823EA0E031360A5E702B070BDAF
:101870000000221000003110001002400000014062
:1018800000080140000401400AB1016170470904E9
:1018900001617047C36801EA030221EA030141EADA
:1018A000024101617047000008B5054B5B690342C6
:1018B00000D108BD024B5861FEF7E4FDF9E700BF17
:1018C0000004014082B0084B1B68084AA2FB0323B6
:1018D0005B0A00FB03F3019300BF019B5A1E0192B8
:1018E000002BF9D102B0704700000020D34D6210E8
:1018F000002800F0F18170B582B00446036813F04F
:10190000010F2CD0994B5B6803F00C03042B1DD006
:10191000964B5B6803F00C03082B12D06368B3F599
:10192000803F41D0002B55D103F1804303F50433B0
:101930001A6822F480321A601A6822F480221A602F
:1019400037E08A4B5B6813F4803FE7D0874B1B6816
:1019500013F4003F03D06368002B00F0BF812368BD
:1019600013F0020F75D0814B5B6813F00C0F5FD042
:101970007E4B5B6803F00C03082B54D02369002BCB
:1019800000F08A807A4B01221A60FFF729FB054696
:10199000764B1B6813F0020F75D1FFF721FB401B3C
:1019A0000228F5D903209EE1704A136843F480337E
:1019B0001360636843B3FFF713FB05466B4B1B686B
:1019C00013F4003FCBD1FFF70BFB401B6428F5D984
:1019D000032088E1B3F5A02F09D0644B1A6822F4E4
:1019E00080321A601A6822F480221A60E1E703F15B
:1019F0008043A3F53C331A6842F480221A601A68C7
:101A000042F480321A60D4E7FFF7EAFA0546574BF2
:101A10001B6813F4003FA2D0FFF7E2FA401B6428D2
:101A2000F5D903205FE1514B5B6813F4803FA5D1EA
:101A30004E4B1B6813F0020F03D02369012B40F0BB
:101A40004F814A4A136823F0F803616943EAC103EE
:101A50001360236813F0080F33D0A369002B5CD008
:101A6000434B0122C3F88024FFF7BAFA05463F4BE7
:101A70005B6A13F0020F21D1FFF7B2FA401B022874
:101A8000F5D903202FE1394A136823F0F80361697F
:101A900043EAC1031360DCE7354B00221A60FFF70D
:101AA0009FFA0546314B1B6813F0020FD1D0FFF7A8
:101AB00097FA401B0228F5D9032014E10120FFF713
:101AC00001FF236813F0040F00F09680274BDB69B9
:101AD00013F0805F34D1254BDA6942F08052DA612D
:101AE000DB6903F080530193019B0125214B1B68A7
:101AF00013F4807F26D0E368012B3DD0002B53D117
:101B000003F1804303F504331A6A22F001021A62DA
:101B10001A6A22F004021A6233E0154B0022C3F85D
:101B20008024FFF75DFA0546104B5B6A13F0020F45
:101B3000C7D0FFF755FA401B0228F5D90320D2E0A1
:101B40000025D3E70B4A136843F480731360FFF753
:101B500047FA0646074B1B6813F4807FCBD1FFF78B
:101B60003FFA801B6428F5D90320BCE00010024036
:101B700000004242007000405F4A136A43F00103D4
:101B80001362E36833B3FFF72BFA06465A4B1B6A1E
:101B900013F0020F2FD1FFF723FA801B41F2883395
:101BA0009842F3D903209EE0052B09D0524B1A6AC4
:101BB00022F001021A621A6A22F004021A62E0E7B5
:101BC0004D4B1A6A42F004021A621A6A42F001028C
:101BD0001A62D6E7FFF704FA0646474B1B6A13F072
:101BE000020F08D0FFF7FCF9801B41F288339842BE
:101BF000F3D9032077E0E5B9E369002B72D03E4AC0
:101C0000526802F00C02082A56D0022B17D03B4B28
:101C100000221A66FFF7E4F90446374B1B6813F0FD
:101C2000007F47D0FFF7DCF9001B0228F5D903201D
:101C300059E0314AD36923F08053D361DCE72F4B5D
:101C400000221A66FFF7CCF905462B4B1B6813F0F0
:101C5000007F06D0FFF7C4F9401B0228F5D9032006
:101C600041E0236AB3F5803F1AD023494B6823F43F
:101C70007413226A606A024313434B601F4B0122B4
:101C80001A66FFF7ADF904461B4B1B6813F0007F83
:101C90000ED1FFF7A5F9001B0228F5D9032022E099
:101CA000154A536823F40033A1680B435360DCE703
:101CB000002018E0002016E0012B16D00E4B5B68C8
:101CC00003F48031226A914211D103F47013626AE5
:101CD00093420ED1002006E001207047012002E06F
:101CE000012000E0002002B070BD0120FBE70120D0
:101CF000F9E70120F7E700BF001002400000424270
:101D00000F4B5B6803F00C02082A01D00D487047A6
:101D1000C3F383420C49885C13F4803F0BD0084B1B
:101D20005B68C3F34043094AD35C064A02FB00F0F8
:101D3000B0FBF3F07047064B03FB00F0704700BFA9
:101D40000010024000127A003C4100084C4100089B
:101D500000093D00002800F0A08070B50D46044643
:101D6000524B1B6803F007038B420BD24F4A136898
:101D700023F007030B431360136803F007038B4240
:101D800040F08D80236813F0020F17D013F0040F7A
:101D900004D0474A536843F4E0635360236813F068
:101DA000080F04D0424A536843F460535360404ADA
:101DB000536823F0F003A1680B435360236813F0CA
:101DC000010F31D06368012B20D0022B25D0384A77
:101DD000126812F0020F64D035494A6822F00302FB
:101DE00013434B60FFF7FCF80646314B5B6803F08A
:101DF0000C036268B3EB820F16D0FFF7F1F8801B7B
:101E000041F288339842F0D9032045E0284A12680D
:101E100012F4003FE0D101203EE0254A126812F0A2
:101E2000007FD9D1012037E0204B1B6803F0070366
:101E3000AB420AD91D4A136823F007032B431360F2
:101E4000136803F00703AB422DD1236813F0040F8E
:101E500006D0174A536823F4E063E1680B435360EC
:101E6000236813F0080F07D0114A536823F4605316
:101E7000216943EAC1035360FFF742FF0C4B5B68E3
:101E8000C3F303130B4AD35CD8400B4B18600B4BC6
:101E90001868FEF7FBFF002070BD0120704701208D
:101EA000FAE70120F8E70120F6E700BF0020024032
:101EB000001002402441000800000020080000201B
:101EC000014B1868704700BF0000002008B5FFF7FD
:101ED000F7FF044B5B68C3F30223034AD35CD8408B
:101EE00008BD00BF001002403441000808B5FFF7EC
:101EF000E7FF044B5B68C3F3C223034AD35CD840BB
:101F000008BD00BF00100240344100080F230360E9
:101F10000B4B5A6802F0030242605A6802F0F0026A
:101F200082605A6802F4E062C2605B68DB0803F416
:101F3000E0630361034B1B6803F007030B6070470A
:101F4000001002400020024070B582B004460368D1
:101F500013F0010F36D03F4BDB6913F0805F49D19E
:101F60003C4BDA6942F08052DA61DB6903F080535E
:101F70000193019B0125384B1B6813F4807F3BD0F4
:101F8000344B1B6A13F4407313D0626802F440723E
:101F90009A420ED02F4A136A23F440702F4901262B
:101FA000C1F840640026C1F84064106213F0010FCC
:101FB00036D1284A136A23F4407361680B431362D5
:101FC000002D3ED1236813F0020F06D0214A53683A
:101FD00023F44043A1680B435360236813F0100FB0
:101FE00034D01C4A536823F48003E1680B435360E8
:101FF00000202CE00025BEE7174A136843F48073E5
:102000001360FEF7EDFF0646134B1B6813F4807F49
:10201000B6D1FEF7E5FF801B6428F5D9032016E052
:10202000FEF7DEFF06460B4B1B6A13F0020FC0D112
:10203000FEF7D6FF801B41F288339842F3D9032084
:1020400005E0D36923F08053D361BBE7002002B0E1
:1020500070BD00BF0010024000700040000042420E
:1020600008B502284ED0102803D0012828D000201F
:1020700008BD2B4B5A68186810F08070F8D0C2F376
:1020800083432849C85C12F4803F15D0244B5B6819
:10209000C3F34043244AD25C244BB3FBF2F303FB6B
:1020A00000F01F4B5B6813F4800FE1D14000204B20
:1020B000A3FB00304008DBE71E4B03FB00F0F0E71A
:1020C000174B1B6A40F202321A40B2F5817F24D0CE
:1020D00003F44073B3F5007F04D0B3F5407F09D01B
:1020E0000020C5E70E4A526A12F0020FF5D049F6F9
:1020F0004040BDE70A4B186810F40030B8D04FF2EA
:102100002440B5E7FFF7F2FE054B5B68C3F381336C
:1021100001335B00B0FBF3F0AAE74FF40040A7E700
:1021200000100240504100086041000800127A008F
:10213000ABAAAAAA00093D002DE9F04782B00546E6
:10214000884617461E46FEF74BFF0A9B1B1A03EBF9
:102150000609FEF745FF82462B4B1B68C3F3CB33C2
:1021600009FB03F301932B689C6838EA04030CBF56
:102170004FF0010C4FF0000CBC4540D0B6F1FF3FD2
:10218000F1D0FEF72DFFA0EB0A0048450AD2B9F1C5
:10219000000F07D0019A02B14A46019B013B01930F
:1021A0009146E0E72A68536823F0E00353606B68C8
:1021B000B3F5827F0BD0AB6AB3F5005F14D0012377
:1021C00085F85130002385F85030032018E0AB68C3
:1021D000B3F5004F02D0B3F5806FECD12A681368D5
:1021E00023F040031360E6E72A68136823F40053E2
:1021F00013602A68136843F400531360DFE700207C
:1022000002B0BDE8F08700BF0000002010B582B02A
:1022100004460B46009200228021FFF78DFF08B98B
:1022200002B010BD636D43F0200363650320F7E740
:1022300010B582B004460B464168B1F5827F10D0DC
:102240006168B1F5827F03D1A168B1F5806F15D0C7
:102250000092002280212046FFF76EFFE0B902B015
:1022600010BD8168B1F5004F02D0B1F5806FE7D1A4
:102270002068016821F040010160E1E7009200223E
:1022800001212046FFF758FF0028E8D0636D43F096
:10229000200363650320E2E7636D43F02003636579
:1022A0000320DCE7002856D010B50446436A33B952
:1022B0004368B3F5827F05D00023C36102E00023A9
:1022C000036143610023A36294F85130002B3CD09A
:1022D000022384F851302268136823F0400313600E
:1022E000636803F48273A26802F404421343E26851
:1022F00002F400621343226902F00202134362698E
:1023000002F001021343A26902F400721343E2696E
:1023100002F038021343226A02F080021343A26AD9
:1023200002F40052216813430B60638B226803F0B0
:10233000040353602268D36923F40063D36100204F
:102340006065012384F8513010BD84F85030204678
:10235000FEF736FDBCE7012070472DE9F04383B05E
:102360001D4690F85030012B00F0D180044688467D
:102370009146012380F85030FEF732FE074694F86C
:102380005160F6B2012E40F0BA80B8F1000F00F0B3
:10239000B780B9F1000F00F0B380032384F8513007
:1023A00000236365C4F83080A4F83490A4F8369014
:1023B000A363A387E38763642364A368B3F5004F33
:1023C0001ED023681A6812F0400F03D11A6842F039
:1023D00040021A60E368B3F5006F1CD0636813B164
:1023E000B9F1010F55D1226B236812781A73236B50
:1023F00001332363E38E9BB2013B9BB2E38648E04B
:102400002268136823F0400313602268136843F4C2
:1024100080431360D5E7636813B1B9F1010F15D19B
:10242000226B23681288DA60236B02332363E38E06
:102430009BB2013B9BB2E38608E0FEF7D1FDC01BD7
:10244000A84202D3B5F1FF3F15D1A5B1E38E9BB2EF
:10245000002B3CD023689A6812F0020FEDD0226B5B
:102460001288DA60236B02332363E38E9BB2013B55
:102470009BB2E386EAE7012384F8513003263FE06C
:10248000FEF7AEFDC01BA84202D3B5F1FF3F19D144
:10249000C5B1E38E9BB2D3B123689A6812F0020FE4
:1024A000EED0226B12781A73236B01332363B4F8D6
:1024B00036C01FFA8CFC0CF1FF3C1FFA8CFCA4F810
:1024C00036C0E6E7012384F85130032618E03A4687
:1024D00029462046FFF79AFE08B120236365A368CA
:1024E00033B901932368DA6801929B680193019BD9
:1024F000636D2BB9012384F85130002600E00226D9
:10250000002384F85030304603B0BDE8F083022643
:10251000F9E72DE9F04383B01F460A9D90F850304B
:10252000012B00F01681044688469146012380F86D
:102530005030FEF755FD064694F85130DBB2626824
:10254000012B0AD0B2F5827F40F0F080A268002A09
:1025500040F0F380042B40F0F280B8F1000F00F05F
:10256000F080B9F1000F00F0EE80002F00F0ED8058
:1025700094F85130DBB2042B02D0052384F851309B
:1025800000236365C4F83890E787A787C4F83080D4
:10259000E786A7862364636423681A6812F0400FF5
:1025A00003D11A6842F040021A60E368B3F5006F85
:1025B00011D063680BB1012F0BD1226B2368127805
:1025C0001A73236B01332363E38E9BB2013B9BB2EF
:1025D000E38601276EE063680BB1012F0BD1226BFC
:1025E00023681288DA60236B02332363E38E9BB285
:1025F000013B9BB2E38601271BE023689A6812F037
:10260000010F0ED0E28F92B25AB1DA68A36B1A8032
:10261000A36B0233A363E38F9BB2013B9BB2E387BF
:102620000127FEF7DDFC801BA84202D3B5F1FF3F76
:102630001ED1E38E9BB21BB9E38F9BB2002B5CD003
:1026400023689A6812F0020FD7D0E28E92B2002A65
:10265000D3D0002FD1D0226B1288DA60236B0233E3
:102660002363E38E9BB2013B9BB2E3860027C4E762
:10267000012384F85130032059E023689A6812F04E
:10268000010F0ED0E28F92B25AB1DA68A36B1A70C2
:10269000A36B0133A363E38F9BB2013B9BB2E38740
:1026A0000127FEF79DFC831BAB4202D3B5F1FF3F30
:1026B0001ED1EDB1E38E9BB213B9E38F9BB2E3B1B0
:1026C00023689A6812F0020FD7D0E28E92B2002AE5
:1026D000D3D0002FD1D0226B12781A73236B013321
:1026E0002363E38E9BB2013B9BB2E3860027C4E7E2
:1026F000012384F85130032019E032462946204650
:10270000FFF784FD70B9A36833B901932368DA68D1
:1027100001929B680193019B636DC3B9012384F807
:10272000513004E020236365012000E002200023F3
:1027300084F8503003B0BDE8F0830220F7E70220B0
:10274000F5E70120F3E70120F1E70120EFE70120A1
:10275000EDE70220EEE72DE9F04383B0044690F860
:102760005160F6B2012E40F0AB80884691461D467E
:102770004368B3F5827F32D094F85030012B00F0DB
:10278000A780012384F85030FEF72AFC0746B8F1F1
:10279000000F00F09680B9F1000F00F09280042342
:1027A00084F8513000236365C4F83880A4F83C9065
:1027B000A4F83E902363A386E38623646364A3683E
:1027C000B3F5004F18D023681A6812F0400F03D1F8
:1027D0001A6842F040021A60E3680BB343E0836872
:1027E000002BC9D1042380F85130009513460A46C6
:1027F000FFF78FFE064667E02268136823F0400368
:1028000013602268136823F480431360DBE7FEF74C
:10281000E7FBC01BA84202D3B5F1FF3F15D1A5B11C
:10282000E38F9BB2002B3CD023689A6812F0010F13
:10283000EDD0A26B1B7B1370A36B0133A363E38FFB
:102840009BB2013B9BB2E387EAE7012384F8513056
:10285000032636E0FEF7C4FBC01BA84202D3B5F145
:10286000FF3F19D1C5B1E38F9BB2D3B123689A68FA
:1028700012F0010FEED0DA68A36B1A80A36B02335B
:10288000A363B4F83EC01FFA8CFC0CF1FF3C1FFAA6
:102890008CFCA4F83EC0E6E7012384F851300326FF
:1028A0000FE03A4629462046FFF7C2FC08B1202334
:1028B0006365636D2BB9012384F85130002600E075
:1028C0000226002384F85030304603B0BDE8F08380
:1028D0000226F9E77047000090F83D30DBB2012B8B
:1028E00027D1022380F83D300268D36843F001030A
:1028F000D3600368114A934210D0B3F1804F0DD0DA
:10290000A2F59432934209D002F58062934205D039
:102910001A6842F001021A60002070479A6802F0BB
:102920000702062A07D01A6842F001021A60002046
:102930007047012070470020704700BF002C014005
:10294000704770477047704710B5044603681A69AE
:1029500012F0020F11D0DA6812F0020F0DD06FF0F2
:1029600002021A610123037703689B6913F0030FC6
:1029700070D0FFF7E6FF0023237723681A6912F06F
:10298000040F12D0DA6812F0040F0ED06FF00402B8
:102990001A610223237723689B6913F4407F5FD079
:1029A0002046FFF7CEFF0023237723681A6912F031
:1029B000080F12D0DA6812F0080F0ED06FF008027C
:1029C0001A61042323772368DB6913F0030F4ED0C9
:1029D0002046FFF7B6FF0023237723681A6912F019
:1029E000100F12D0DA6812F0100F0ED06FF0100234
:1029F0001A61082323772368DB6913F4407F3DD0F5
:102A00002046FFF79EFF0023237723681A6912F000
:102A1000010F03D0DA6812F0010F36D123681A696A
:102A200012F0800F03D0DA6812F0800F34D12368DF
:102A30001A6912F0400F03D0DA6812F0400F32D159
:102A400023681A6912F0200F03D0DA6812F0200F01
:102A500030D110BDFFF774FF2046FFF773FF8AE700
:102A60002046FFF76DFF2046FFF76CFF9BE72046EF
:102A7000FFF766FF2046FFF765FFACE72046FFF74C
:102A80005FFF2046FFF75EFFBDE76FF001021A61AE
:102A90002046FDF75DFDC1E76FF080021A61204618
:102AA00000F077F8C3E76FF040021A612046FFF7A5
:102AB0004AFFC5E76FF020021A61204600F068F86F
:102AC000C7E7000003681B4A90420AD0B0F1804F6C
:102AD00007D0A2F59432904203D002F58062904272
:102AE00003D123F070034A681343124A90420AD07C
:102AF000B0F1804F07D0A2F59432904203D002F596
:102B00008062904203D123F44073CA68134323F0D8
:102B100080034A69134303608B68C3620B68836256
:102B2000044B984202D00123436170470B69036351
:102B3000F9E700BF002C014040B310B5044690F8FF
:102B40003D30F3B1022384F83D30214651F8040BA7
:102B5000FFF7B8FF012384F8463084F83E3084F84C
:102B60003F3084F8403084F8413084F8423084F8B3
:102B7000433084F8443084F8453084F83D300020F8
:102B800010BD80F83C30FFF7A5FEDBE70120704761
:102B900070477047842801D0033070470020704789
:102BA00008B500F0CBFC002008BD2DE9F04387B04C
:102BB00004460F464569BDB18669AEB1D0F80480C0
:102BC000D0F80090B0F90800FFF7E4FF02960195F5
:102BD00000903B4622694946404600F041FC059082
:102BE000059807B0BDE8F08365682668D4F81080C2
:102BF000B4F90800FFF7CEFF05AB019300903B4608
:102C00001FFA88F23146284600F064FC0128E7D01C
:102C10000020E6E708B500B9012000F0D9FD00204A
:102C200008BD00F1080343604FF0FF328260C360CB
:102C3000036100230360704700230361704743680A
:102C40004B609A688A60516099600861036801333B
:102C50000360704730B40D68B5F1FF3F11D000F14B
:102C600008031C465B681A68AA42FAD963684B607D
:102C700099608C606160086103680133036030BC57
:102C800070470469F2E70369416882688A604168B5
:102C900051605A68824206D0002202611A68013AE5
:102CA0001A601868704782685A60F5E782B000239E
:102CB00001930D4B1B68B3F1FF3F08D04FF0500359
:102CC00083F31188BFF36F8FBFF34F8FFEE74FF091
:102CD000500383F31188BFF36F8FBFF34F8F019BB6
:102CE000002BFCD002B070470C00002006480068A2
:102CF000006880F3088862B661B6BFF34F8FBFF3F8
:102D00006F8F00DF00BF000008ED00E04FF0807320
:102D100040F8043C21F0010140F8081C034B40F846
:102D20000C3C40F8202C4038704700BFAD2C000808
:102D3000074B19680868B0E8F00F80F30988BFF303
:102D40006F8F4FF0000080F311884EF00D0E70472A
:102D5000EC1200204FF0500383F31188BFF36F8F04
:102D6000BFF34F8F0B4A136801331360012B00D060
:102D700070474FF0E023D3F8043D13F0FF0FF7D076
:102D80004FF0500383F31188BFF36F8FBFF34F8F62
:102D9000FEE700BF0C000020094B1B6843B94FF051
:102DA000500383F31188BFF36F8FBFF34F8FFEE79C
:102DB000013B034A13600BB983F31188704700BFCE
:102DC0000C000020000000000000000000000000D7
:102DD000EFF30980BFF36F8F0D4B1A6820E9F00FF6
:102DE00010602DE908404FF0500080F3118800F08A
:102DF00015FD4FF0000080F31188BDE80840196808
:102E00000868B0E8F00F80F30988BFF36F8F704750
:102E1000EC12002008B54FF0500383F31188BFF384
:102E20006F8FBFF34F8F00F0CBFB28B14FF0E02343
:102E30004FF08052C3F8042D002383F3118808BD9E
:102E40004FF0E022002313619361054B1B68054995
:102E5000A1FB03139B09013B5361072313617047D7
:102E600000000020D34D621010B582B02A4B1A78B2
:102E7000D2B20192FF221A701B78DBB28DF80330B8
:102E80009DF8033003F05003244A1370244B0722AB
:102E90001A6009E0224A1368013B13609DF8033071
:102EA0005B00DBB28DF803309DF8033013F0800F28
:102EB000F0D11B4B1B68032B08D04FF0500383F35A
:102EC0001188BFF36F8FBFF34F8FFEE71B02144AC9
:102ED000136003F4E0631360019BDBB20E4A1370CE
:102EE0004FF0E023D3F8202D42F47002C3F8202DD8
:102EF000D3F8202D42F07042C3F8202DFFF7A0FF39
:102F00000024084B1C60FFF7F1FE00F087FCFFF780
:102F1000CDFE204602B010BD00E400E0CC0600204B
:102F2000D00600200C000020124A12F0070F1ED01D
:102F3000D11D21F00701C1F5406313440A460E4834
:102F40000260002141601344083B23F007030B4853
:102F5000036059601960991A51601360084B196039
:102F6000084B1960084B4FF000421A6070474FF44D
:102F70004063E4E7D8060020E4120020D4060020D5
:102F8000E0120020DC120020D8120020154B1A4657
:102F90001B688342FBD3516802EB010C844509D0C6
:102FA000416800EB010C634509D00360904218D0E2
:102FB000106070474068014451601046F0E710B45B
:102FC000094C2468A3420AD05B6819444160136825
:102FD0001B680360904200D0106010BC7047046012
:102FE000F8E77047E4120020D406002070B50546CB
:102FF00000F0DEFA344B1B68A3B1344B1B681D4252
:103000004AD135B1083515F0070F02D025F0070574
:103010000835002D42D02E4B1B68AB424DD32D4AB4
:10302000146804E0FFF780FFE7E722461C46636868
:10303000AB4202D22368002BF7D1234B1B68A3427B
:103040003DD0166808362368136063685B1B102B3D
:1030500010D9601910F0070F08D04FF0500383F318
:103060001188BFF36F8FBFF34F8FFEE7436065603A
:10307000FFF78CFF626816490B689B1A0B601649B4
:1030800009688B4201D214490B60104B1B68134333
:1030900063600023236002E0002600E0002600F0C9
:1030A0001BFB16F0070F0CD04FF0500383F3118871
:1030B000BFF36F8FBFF34F8FFEE70026EFE70026C9
:1030C000EDE7304670BD00BFD4060020D8120020C6
:1030D000DC120020E4120020E012002080B338B59A
:1030E0000446A0F1080550F8043C164A1268134241
:1030F00008D14FF0500383F31188BFF36F8FBFF3F4
:103100004F8FFEE750F8081C41B14FF0500383F396
:103110001188BFF36F8FBFF34F8FFEE723EA0203DF
:1031200040F8043C00F044FA54F8041C064A1368C2
:103130000B4413602846FFF729FF00F0CDFA38BD95
:10314000704700BFD8120020DC120020084B1B681B
:103150001B6823B9074B4FF0FF321A607047044BCE
:103160001B68DB68DB685A68024B1A60704700BF57
:10317000F0120020C81300202DE9F04707469846BA
:10318000089DDDF824900A9C266B02F18042013AEA
:1031900006EB820626F007064FF0000CBCF10F0F7D
:1031A0000BD811F80C2004EB0C0383F8342011F831
:1031B0000C3013B10CF1010CF0E7002384F843301C
:1031C000062D00D90625E56265644FF0000AC4F8B3
:1031D00048A0201DFFF730FD04F11800FFF72CFD7B
:1031E0002461C5F10705A5616462C4F84CA084F8A8
:1031F00050A0424639463046FFF788FD2060B9F1BD
:10320000000F01D0C9F80040BDE8F08738B50024B0
:1032100007E004EB840293000E481844FFF701FD19
:103220000134062CF5D90C4D2846FFF7FAFC0B4C5F
:103230002046FFF7F6FC0A48FFF7F3FC0948FFF7C2
:10324000F0FC0948FFF7EDFC084B1D60084B1C60C3
:1032500038BD00BFF81200209C130020B0130020DE
:10326000D0130020FC130020E8130020F0120020EF
:10327000F412002010B50446FFF76CFD214A1368D4
:1032800001331360204B1B685BB1204B1B686BB98B
:103290001D4B1B68DA6AE36A9A4207D81A4B1C6016
:1032A00004E0194B1C601368012B28D0184A1368DE
:1032B00001331360E06A01238340164A11680B430F
:1032C000136000EB8000211D134B03EB8000FFF720
:1032D000B6FCFFF761FD0D4B1B687BB10A4B1B6809
:1032E000DA6AE36A9A4209D24FF0E0234FF0805243
:1032F000C3F8042DBFF34F8FBFF36F8F10BDFFF7DF
:1033000085FFD3E784130020EC120020E413002093
:103310009413002098130020F812002010B50446E2
:1033200090F8513063B1012B11D0022B0ED04FF029
:10333000500383F31188BFF36F8FBFF34F8FFEE706
:10334000006BFFF7CBFE2046FFF7C8FE10BDFFF76E
:10335000C5FEFBE70F4B1B68D3B110B5FFF7FAFCB6
:103360000D4BDB68DC68201DFFF78DFC0B4A1368F2
:10337000013B1360074A1368013B1360FFF70CFD24
:103380002046FFF7CBFF034B1B68002BE6D110BD97
:10339000704700BF88130020FC1300208413002016
:1033A00008B5FFF7D7FF074B1B68012BF9D94FF082
:1033B000E0234FF08052C3F8042DBFF34F8FBFF3CB
:1033C0006F8FEEE7F812002070B504460D461D4BD6
:1033D0001E681D4B18680430FFF755FC50B91A4B96
:1033E0001B68DA6A012303FA02F218490B6823EA20
:1033F00002030B60B4F1FF3F0DD03444124B1B6845
:103400005C60A64210D9124B18680F4B1968043142
:10341000FFF720FC70BD002DEFD00B4B1968043175
:103420000C48FFF70CFCF5E70B4B1868064B1968C6
:103430000431FFF70FFC094B1B68A342EAD9074B85
:103440001C60E7E710140020EC1200209813002005
:10345000F4120020E8130020F0120020C81300200E
:1034600030B587B00B9C7CB10C9DB5B1542504954B
:10347000049D542D1AD04FF0500383F31188BFF3ED
:103480006F8FBFF34F8FFEE74FF0500383F3118828
:10349000BFF36F8FBFF34F8FFEE74FF0500383F3FF
:1034A0001188BFF36F8FBFF34F8FFEE70C9D2C6326
:1034B000022485F8514000240394029505AC019440
:1034C0000A9C0094FFF758FE0C98FFF7D3FE05986E
:1034D00007B030BD2DE9F04385B007468846144655
:1034E0001E469000FFF782FD00B381465420FFF78F
:1034F0007DFD0546B0B1C0F83090E5B1002385F8F8
:103500005130039302950D9B01930C9B009333461E
:10351000224641463846FFF72FFE2846FFF7AAFE0F
:10352000012005E04846FFF7D9FDE6E74FF0FF3000
:1035300005B0BDE8F0834FF0FF30F9E710B588B073
:1035400000240594069407AA06A905A8FCF7B0FE76
:10355000059B0293069B019300942346079A0E490C
:103560000E48FFF77DFF0E4B186090B14FF05003EF
:1035700083F31188BFF36F8FBFF34F8F094B4FF069
:10358000FF321A60084B01221A60084B1C60FFF7DB
:103590006BFC08B010BD00BF64410008A1330008F7
:1035A000C4130020C8130020E413002010140020CE
:1035B000024A136801331360704700BF9013002064
:1035C000F8B53A4B1B68002B64D1394B1D680135A7
:1035D0001D60C5B9374B1B681B6843B14FF05003E2
:1035E00083F31188BFF36F8FBFF34F8FFEE7314A2C
:1035F0001168314B186810601960304A1368013344
:103600001360FFF7A3FD2E4B1B68AB4238D9002790
:103610002C4B1B68DB6A03EB83039A002A4B9B58F5
:10362000012B3CD901273AE00127224B1B681B687C
:1036300043B3204B1B68DB68DC6863689D4226D37C
:10364000261D3046FFF71FFBA36A1BB104F11800CB
:10365000FFF719FBE36A01229A401C4908680243FC
:103660000A6003EB83039A00314617481044FFF7C2
:10367000E6FAE26A134B1B68DB6A9A42D4D2D4E7BB
:103680000027D2E70E4B4FF0FF321A60C0E70C4A1A
:103690001360BDE70E4A13680133136000270D4B1A
:1036A0001B6803B101273846F8BD00BF9013002006
:1036B00010140020F0120020F4120020CC1300207F
:1036C000C8130020EC120020F812002098130020EC
:1036D0008C1300201414002038B5354B1B6843B9F7
:1036E0004FF0500383F31188BFF36F8FBFF34F8FF9
:1036F000FEE7FFF72FFB2E4B1A68013A1A601B6892
:10370000002B4FD12B4B1B680BB900244BE000243E
:10371000294B1B681BB3284BDB68DC6804F11800DD
:10372000FFF7B1FA251D2846FFF7ADFAE06A01233D
:103730008340224A11680B43136000EB8000294646
:103740001F4B03EB8000FFF77AFAE26A1D4B1B6800
:10375000DB6A9A42DCD31C4B01221A60D8E70CB119
:10376000FFF7F4FC194B1C6884B9174B1C68D4B1E3
:103770004FF0E0234FF08052C3F8042DBFF34F8F7A
:10378000BFF36F8F01240EE0013C07D0FFF718FF55
:103790000028F9D00C4B01221A60F5E70B4B0022F0
:1037A0001A60E2E70024FFF7F7FA204638BD00BFB1
:1037B0009013002084130020D013002098130020C1
:1037C000F8120020EC120020141400208C130020AA
:1037D00010B5A8B10446104B1B6843B14FF050031D
:1037E00083F31188BFF36F8FBFF34F8FFEE7FFF7AF
:1037F000DFFE00212046FFF7E7FDFFF76DFF48B928
:103800004FF0E0234FF08052C3F8042DBFF34F8FE9
:10381000BFF36F8F10BD00BF90130020204B1B68BB
:103820001BB1204B01221A6070471E4B00221A6008
:103830001D4B1B68B3FA83F3DBB2C3F11F0303EB29
:1038400083018A0019498A5842B94FF0500383F323
:103850001188BFF36F8FBFF34F8FFEE7134903EB60
:10386000830082000A4450684068506003EB830C78
:103870004FEA8C0208321144884209D003EB8303DB
:103880009A000A4B13445B68DA68094B1A60704768
:10389000406862469100054A0A445060EEE700BF66
:1038A000901300201414002098130020F812002018
:1038B000EC12002070B50D4E0D4D761BB61006D0E3
:1038C000002455F8043B01349847A642F9D1094E2B
:1038D000094D00F0D5F8761BB61006D0002455F837
:1038E000043B01349847A642F9D170BD70410008ED
:1038F000704100087841000870410008830730B526
:1039000048D0541E002A3FD00346CAB201E0013C11
:103910003AD303F8012B9D07F9D1032C2DD9CDB251
:1039200045EA05250F2C45EA054536D9A4F11002D4
:1039300022F00F0C03F1200EE6444FEA121C03F1B3
:10394000100242E9045542E9025510327245F8D19D
:103950000CF1010214F00C0F03EB021204F00F0C37
:1039600013D0ACF1040323F003030433134442F8EF
:10397000045B9342FBD10CF003042CB1CAB21C448B
:1039800003F8012B9C42FBD130BD64461346002C4A
:10399000F4D1F9E703461446BFE71A46A446E0E728
:1039A000024B13B1024800F005B870470000000058
:1039B000C1390008002301461A46184600F01AB81B
:1039C00038B5084B084D5B1B9C1007D0043B1D44C9
:1039D000013C55F804399847002CF9D1BDE838402E
:1039E00000F054B87C41000878410008704700BFDF
:1039F000704700BF2DE9F047DFF87CA00646DAF8F3
:103A0000000098460F469146FFF7F0FF1B4B1B68DE
:103A1000D3F8484124B365681F2D26DC5EB96B1CC2
:103A20000235DAF80000636044F82570FFF7E0FF24
:103A30000020BDE8F087012304EB8501C1F88890E0
:103A4000D4F88821AB401A43022EC4F88821C1F86B
:103A50000881E4D1D4F88C211343C4F88C31DEE71B
:103A600003F5A674C3F84841D5E7DAF80000FFF77C
:103A7000BFFF4FF0FF30DCE7380400206C41000846
:103A8000F8B500BFF8BC08BC9E467047F8B500BF4B
:083A9000F8BC08BC9E4670471B
:103A9800083B0008A5020008000000000000000024
:103AA800400000000000000000000000143B000877
:103AB800650400080000000000000000400000004D
:103AC8000000000000000000203B000895040008EA
:103AD800000000000000000040000000000000009E
:103AE80000000000243B0008090500080000000051
:103AF800000000004000000000000000000000007E
:103B080064656661756C745461736B004E5246321D
:103B1800344C303100000000414443004C4544001F
:103B28004144435F56616C75653A0000000000002F
:103B3800000000000000000000000000000000F885
:103B480000000000000000333000000000100C06E8
:103B5800100C0600000000000000000040C0784083
:103B6800C0784000043F04043F040400007088FC4F
:103B780008300000001820FF211E0000F008F000A7
:103B8800E018000000211C031E211E0000F0088818
:103B9800700000001E2123241927211010160E0082
:103BA800000000000000000000000000000000E02D
:103BB8001804020000000007182040000002041842
:103BC800E00000000040201807000000404080F09E
:103BD800804040000202010F01020200000000F0D4
:103BE800000000000101011F0101010000000000A8
:103BF8000000000080B0700000000000000000001D
:103C080000000000000101010101010100000000A5
:103C1800000000000030300000000000000000003C
:103C280080601804006018060100000000E0100819
:103C38000810E000000F102020100F00001010F8EE
:103C4800000000000020203F20200000007008082D
:103C580008887000003028242221300000300888AD
:103C6800884830000018202020110E000000C020D5
:103C780010F8000000070424243F240000F80888F6
:103C8800880808000019212020110E0000E0108883
:103C980088180000000F112020110E0000380808B5
:103CA800C83808000000003F0000000000708808C5
:103CB80008887000001C222121221C0000E0100846
:103CC8000810E0000000312222110F00000000C09F
:103CD800C00000000000003030000000000000803C
:103CE800000000000000806000000000000080402C
:103CF8002010080000010204081020004040404045
:103D08004040400004040404040404000008102097
:103D180040800000002010080402010000704808DC
:103D28000808F0000000003036010000C030C82844
:103D3800E810E0000718272423140B000000C038FF
:103D4800E0000000203C23020227382008F8888879
:103D580088700000203F202020110E00C030080885
:103D680008083800071820202010080008F808085C
:103D78000810E000203F202020100F0008F8888855
:103D8800E8081000203F20202320180008F8888821
:103D9800E8081000203F200003000000C030080899
:103DA8000838000007182020221E020008F8080022
:103DB8000008F808203F210101213F20000808F8E9
:103DC800080800000020203F20200000000008080C
:103DD800F8080800C08080807F00000008F888C0CC
:103DE80028180800203F20012638200008F808007D
:103DF80000000000203F20202020300008F8F800B4
:103E0800F8F80800203F003F003F200008F830C0C5
:103E18000008F808203F200007183F00E0100808B5
:103E28000810E0000F10202020100F0008F80808E4
:103E38000808F000203F210101010000E0100808F7
:103E48000810E0000F18242438504F0008F888881C
:103E580088887000203F2000030C302000708808FC
:103E6800080838000038202121221C00180808F80A
:103E7800080818000000203F2000000008F808008B
:103E88000008F808001F202020201F00087888005C
:103E980000C83808000007380E010000F80800F8CC
:103EA8000008F800033C0700073C03000818688076
:103EB8008068180820302C03032C30200838C800EC
:103EC800C83808000000203F20000000100808083B
:103ED800C83808002038262120201800000000FEDD
:103EE800020202000000007F40404000000C30C089
:103EF80000000000000000010638C00000020202B5
:103F0800FE000000004040407F0000000000040266
:103F18000202040000000000000000000000000091
:103F28000000000080808080808080800002020481
:103F38000000000000000000000000000000808079
:103F4800808000000019242222223F2008F80080E7
:103F580080000000003F112020110E0000000080AA
:103F680080800000000E1120202011000000008039
:103F78008088F800000E112020103F20000080806B
:103F880080800000001F222222221300008080F07F
:103F9800888888180020203F2020000000008080AA
:103FA80080808000006B94949493600008F80080EF
:103FB80080800000203F210000203F20008098984A
:103FC800000000000020203F2020000000000080AA
:103FD8009898000000C08080807F000008F80000EA
:103FE80080808000203F24022D302000000808F83F
:103FF800000000000020203F2020000080808080FA
:1040080080808000203F20003F20003F808000808B
:1040180080800000203F210000203F200000808099
:1040280080800000001F202020201F00808000804A
:104038008000000080FFA12020110E0000000080F9
:1040480080808000000E112020A0FF8080808000EA
:104058008080800020203F21200001000000808017
:10406800808080000033242424241900008080E00C
:10407800808000000000001F2020000080800000D9
:1040880000808000001F202020103F2080808000BA
:104098000080808000010E300806010080800080CA
:1040A800008080800F300C030C300F0000808000EF
:1040B800808080000020312E0E312000808080001A
:1040C8000080808080818E701806010000808080CA
:1040D800808080000021302C222130000000000068
:1040E800807C020200000000003F40400000000009
:1040F800FF00000000000000FF0000000002027C3A
:10410800800000000040403F000000000006010160
:10411800020204040000000000000000000000008B
:10412800000000000102030406070809000000005F
:104138000102030402030405060708090A0B0C0D13
:104148000E0F1010010200000203040506070809FB
:104158000A0B0C0D0E0F10100102000049444C45CB
:0841680000000000100000201F
:08417000A13900083501000827
:044178001101000829
:10417C000024F4000100000010000000AAAAAAAA62
:10418C0000000000FC02002064030020CC0300208F
:10419C000000000000000000000000000000000013
:1041AC000000000000000000000000000000000003
:1041BC0000000000000000000000000000000000F3
:1041CC0000000000000000000000000000000000E3
:1041DC0000000000000000000000000000000000D3
:1041EC0000000000000000000000000000000000C3
:1041FC0000000000000000000000000000000000B3
:10420C0000000000000000000000000000000000A2
:10421C000000000000000000000000000000000092
:10422C000000000000000000010000000000000081
:10423C000E33CDAB34126DE6ECDE05000B00000046
:10424C000000000000000000000000000000000062
:10425C000000000000000000000000000000000052
:10426C000000000000000000000000000000000042
:10427C000000000000000000000000000000000032
:0C45AC00000000000000000018140020B7
:0400000508000F5987
:00000001FF
